{
  "contractName": "StakingManager",
  "abi": [
    {
      "inputs": [
        {
          "internalType": "address",
          "name": "_rewardTokenAddress",
          "type": "address"
        },
        {
          "internalType": "uint256",
          "name": "_rewardTokensPerBlock",
          "type": "uint256"
        }
      ],
      "stateMutability": "nonpayable",
      "type": "constructor"
    },
    {
      "anonymous": false,
      "inputs": [
        {
          "indexed": true,
          "internalType": "address",
          "name": "user",
          "type": "address"
        },
        {
          "indexed": true,
          "internalType": "uint256",
          "name": "poolId",
          "type": "uint256"
        },
        {
          "indexed": false,
          "internalType": "uint256",
          "name": "amount",
          "type": "uint256"
        }
      ],
      "name": "Deposit",
      "type": "event"
    },
    {
      "anonymous": false,
      "inputs": [
        {
          "indexed": true,
          "internalType": "address",
          "name": "user",
          "type": "address"
        },
        {
          "indexed": true,
          "internalType": "uint256",
          "name": "poolId",
          "type": "uint256"
        },
        {
          "indexed": false,
          "internalType": "uint256",
          "name": "amount",
          "type": "uint256"
        }
      ],
      "name": "HarvestRewards",
      "type": "event"
    },
    {
      "anonymous": false,
      "inputs": [
        {
          "indexed": true,
          "internalType": "address",
          "name": "previousOwner",
          "type": "address"
        },
        {
          "indexed": true,
          "internalType": "address",
          "name": "newOwner",
          "type": "address"
        }
      ],
      "name": "OwnershipTransferred",
      "type": "event"
    },
    {
      "anonymous": false,
      "inputs": [
        {
          "indexed": false,
          "internalType": "uint256",
          "name": "poolId",
          "type": "uint256"
        }
      ],
      "name": "PoolCreated",
      "type": "event"
    },
    {
      "anonymous": false,
      "inputs": [
        {
          "indexed": true,
          "internalType": "address",
          "name": "user",
          "type": "address"
        },
        {
          "indexed": true,
          "internalType": "uint256",
          "name": "poolId",
          "type": "uint256"
        },
        {
          "indexed": false,
          "internalType": "uint256",
          "name": "amount",
          "type": "uint256"
        }
      ],
      "name": "Withdraw",
      "type": "event"
    },
    {
      "inputs": [],
      "name": "owner",
      "outputs": [
        {
          "internalType": "address",
          "name": "",
          "type": "address"
        }
      ],
      "stateMutability": "view",
      "type": "function",
      "constant": true
    },
    {
      "inputs": [
        {
          "internalType": "uint256",
          "name": "",
          "type": "uint256"
        },
        {
          "internalType": "address",
          "name": "",
          "type": "address"
        }
      ],
      "name": "poolStakers",
      "outputs": [
        {
          "internalType": "uint256",
          "name": "amount",
          "type": "uint256"
        },
        {
          "internalType": "uint256",
          "name": "rewards",
          "type": "uint256"
        },
        {
          "internalType": "uint256",
          "name": "rewardDebt",
          "type": "uint256"
        }
      ],
      "stateMutability": "view",
      "type": "function",
      "constant": true
    },
    {
      "inputs": [
        {
          "internalType": "uint256",
          "name": "",
          "type": "uint256"
        }
      ],
      "name": "pools",
      "outputs": [
        {
          "internalType": "contract IERC20",
          "name": "stakeToken",
          "type": "address"
        },
        {
          "internalType": "uint256",
          "name": "tokensStaked",
          "type": "uint256"
        },
        {
          "internalType": "uint256",
          "name": "lastRewardedBlock",
          "type": "uint256"
        },
        {
          "internalType": "uint256",
          "name": "accumulatedRewardsPerShare",
          "type": "uint256"
        }
      ],
      "stateMutability": "view",
      "type": "function",
      "constant": true
    },
    {
      "inputs": [],
      "name": "renounceOwnership",
      "outputs": [],
      "stateMutability": "nonpayable",
      "type": "function"
    },
    {
      "inputs": [],
      "name": "rewardToken",
      "outputs": [
        {
          "internalType": "contract RewardToken",
          "name": "",
          "type": "address"
        }
      ],
      "stateMutability": "view",
      "type": "function",
      "constant": true
    },
    {
      "inputs": [
        {
          "internalType": "address",
          "name": "newOwner",
          "type": "address"
        }
      ],
      "name": "transferOwnership",
      "outputs": [],
      "stateMutability": "nonpayable",
      "type": "function"
    },
    {
      "inputs": [
        {
          "internalType": "contract IERC20",
          "name": "_stakeToken",
          "type": "address"
        }
      ],
      "name": "createPool",
      "outputs": [],
      "stateMutability": "nonpayable",
      "type": "function"
    },
    {
      "inputs": [
        {
          "internalType": "uint256",
          "name": "_poolId",
          "type": "uint256"
        },
        {
          "internalType": "uint256",
          "name": "_amount",
          "type": "uint256"
        }
      ],
      "name": "deposit",
      "outputs": [],
      "stateMutability": "nonpayable",
      "type": "function"
    },
    {
      "inputs": [
        {
          "internalType": "uint256",
          "name": "_poolId",
          "type": "uint256"
        }
      ],
      "name": "withdraw",
      "outputs": [],
      "stateMutability": "nonpayable",
      "type": "function"
    },
    {
      "inputs": [
        {
          "internalType": "uint256",
          "name": "_poolId",
          "type": "uint256"
        }
      ],
      "name": "harvestRewards",
      "outputs": [],
      "stateMutability": "nonpayable",
      "type": "function"
    },
    {
      "inputs": [
        {
          "internalType": "uint256",
          "name": "_poolId",
          "type": "uint256"
        }
      ],
      "name": "getTotalRewards",
      "outputs": [
        {
          "internalType": "uint256",
          "name": "",
          "type": "uint256"
        }
      ],
      "stateMutability": "view",
      "type": "function",
      "constant": true
    },
    {
      "inputs": [
        {
          "internalType": "uint256",
          "name": "_poolId",
          "type": "uint256"
        }
      ],
      "name": "getStaked",
      "outputs": [
        {
          "internalType": "uint256",
          "name": "",
          "type": "uint256"
        }
      ],
      "stateMutability": "view",
      "type": "function",
      "constant": true
    },
    {
      "inputs": [
        {
          "internalType": "uint256",
          "name": "_poolId",
          "type": "uint256"
        }
      ],
      "name": "getTotalStaked",
      "outputs": [
        {
          "internalType": "uint256",
          "name": "",
          "type": "uint256"
        }
      ],
      "stateMutability": "view",
      "type": "function",
      "constant": true
    },
    {
      "inputs": [
        {
          "internalType": "uint256",
          "name": "_poolId",
          "type": "uint256"
        }
      ],
      "name": "getRewardPerShare",
      "outputs": [
        {
          "internalType": "uint256",
          "name": "",
          "type": "uint256"
        }
      ],
      "stateMutability": "view",
      "type": "function",
      "constant": true
    }
  ],
  "bytecode": "0x60806040523480156200001157600080fd5b5060405162002071380380620020718339818101604052810190620000379190620001a1565b620000576200004b620000a760201b60201c565b620000af60201b60201c565b81600160006101000a81548173ffffffffffffffffffffffffffffffffffffffff021916908373ffffffffffffffffffffffffffffffffffffffff16021790555080600281905550505062000254565b600033905090565b60008060009054906101000a900473ffffffffffffffffffffffffffffffffffffffff169050816000806101000a81548173ffffffffffffffffffffffffffffffffffffffff021916908373ffffffffffffffffffffffffffffffffffffffff1602179055508173ffffffffffffffffffffffffffffffffffffffff168173ffffffffffffffffffffffffffffffffffffffff167f8be0079c531659141344cd1fd0a4f28419497f9722a3daafe3b4186f6b6457e060405160405180910390a35050565b600081519050620001848162000220565b92915050565b6000815190506200019b816200023a565b92915050565b60008060408385031215620001b557600080fd5b6000620001c58582860162000173565b9250506020620001d8858286016200018a565b9150509250929050565b6000620001ef82620001f6565b9050919050565b600073ffffffffffffffffffffffffffffffffffffffff82169050919050565b6000819050919050565b6200022b81620001e2565b81146200023757600080fd5b50565b620002458162000216565b81146200025157600080fd5b50565b611e0d80620002646000396000f3fe608060405234801561001057600080fd5b50600436106100ea5760003560e01c8063993b21c11161008c578063e2bbb15811610066578063e2bbb15814610260578063f2fde38b1461027c578063f7c618c114610298578063fac9101c146102b6576100ea565b8063993b21c1146101cb578063ac4afa38146101fb578063b798aaae1461022e576100ea565b806357126d0d116100c857806357126d0d1461016b578063715018a6146101875780638da5cb5b146101915780639049f9d2146101af576100ea565b80632e1a7d4d146100ef5780632f8899f31461010b578063552164ee1461013b575b600080fd5b610109600480360381019061010491906114dd565b6102e6565b005b610125600480360381019061012091906114dd565b6104d0565b604051610132919061190d565b60405180910390f35b610155600480360381019061015091906114dd565b61052a565b604051610162919061190d565b60405180910390f35b610185600480360381019061018091906114dd565b61067c565b005b61018f6108b4565b005b6101996108c8565b6040516101a69190611730565b60405180910390f35b6101c960048036038101906101c491906114b4565b6108f1565b005b6101e560048036038101906101e091906114dd565b610a1e565b6040516101f2919061190d565b60405180910390f35b610215600480360381019061021091906114dd565b610a78565b60405161022594939291906117ab565b60405180910390f35b61024860048036038101906102439190611506565b610ad8565b60405161025793929190611928565b60405180910390f35b61027a60048036038101906102759190611542565b610b0f565b005b61029660048036038101906102919190611462565b610d03565b005b6102a0610d87565b6040516102ad91906117f0565b60405180910390f35b6102d060048036038101906102cb91906114dd565b610dad565b6040516102dd919061190d565b60405180910390f35b600060038281548110610322577f4e487b7100000000000000000000000000000000000000000000000000000000600052603260045260246000fd5b9060005260206000209060040201905060006004600084815260200190815260200160002060003373ffffffffffffffffffffffffffffffffffffffff1673ffffffffffffffffffffffffffffffffffffffff1681526020019081526020016000209050600081600001549050600081116103d2576040517f08c379a00000000000000000000000000000000000000000000000000000000081526004016103c99061186d565b60405180910390fd5b6103db8461067c565b6000826000018190555064e8d4a51000836003015483600001546103ff9190611a18565b61040991906119e7565b8260020181905550808360010160008282546104259190611a72565b92505081905550833373ffffffffffffffffffffffffffffffffffffffff167ff279e6a1f5e320cca91135676d9cb6e44ca8a08c0b88342bcdb1144f6511b56883604051610473919061190d565b60405180910390a36104ca33828560000160009054906101000a900473ffffffffffffffffffffffffffffffffffffffff1673ffffffffffffffffffffffffffffffffffffffff16610e0a9092919063ffffffff16565b50505050565b6000806003838154811061050d577f4e487b7100000000000000000000000000000000000000000000000000000000600052603260045260246000fd5b906000526020600020906004020190508060010154915050919050565b60008060038381548110610567577f4e487b7100000000000000000000000000000000000000000000000000000000600052603260045260246000fd5b9060005260206000209060040201905060008160010154146106715760006004600085815260200190815260200160002060003373ffffffffffffffffffffffffffffffffffffffff1673ffffffffffffffffffffffffffffffffffffffff168152602001908152602001600020905060008260020154436105e99190611a72565b90506000600254826105fb9190611a18565b90506000846001015464e8d4a51000836106159190611a18565b61061f91906119e7565b856003015461062e9190611991565b90506000846002015464e8d4a5100083876000015461064d9190611a18565b61065791906119e7565b6106619190611a72565b9050809650505050505050610677565b60009150505b919050565b61068581610e90565b6000600382815481106106c1577f4e487b7100000000000000000000000000000000000000000000000000000000600052603260045260246000fd5b9060005260206000209060040201905060006004600084815260200190815260200160002060003373ffffffffffffffffffffffffffffffffffffffff1673ffffffffffffffffffffffffffffffffffffffff16815260200190815260200160002090506000816002015464e8d4a51000846003015484600001546107469190611a18565b61075091906119e7565b61075a9190611a72565b905060008114156107995764e8d4a510008360030154836000015461077f9190611a18565b61078991906119e7565b82600201819055505050506108b1565b6000826001018190555064e8d4a51000836003015483600001546107bd9190611a18565b6107c791906119e7565b8260020181905550833373ffffffffffffffffffffffffffffffffffffffff167fbc9a2b6a61d1b15cc1adefc67f9e37aaca7c34f43080954178be6eb9c6f23df683604051610816919061190d565b60405180910390a3600160009054906101000a900473ffffffffffffffffffffffffffffffffffffffff1673ffffffffffffffffffffffffffffffffffffffff166340c10f1933836040518363ffffffff1660e01b815260040161087b929190611782565b600060405180830381600087803b15801561089557600080fd5b505af11580156108a9573d6000803e3d6000fd5b505050505050505b50565b6108bc610f68565b6108c66000610fe6565b565b60008060009054906101000a900473ffffffffffffffffffffffffffffffffffffffff16905090565b6108f9610f68565b6109016113d0565b81816000019073ffffffffffffffffffffffffffffffffffffffff16908173ffffffffffffffffffffffffffffffffffffffff1681525050600381908060018154018082558091505060019003906000526020600020906004020160009091909190915060008201518160000160006101000a81548173ffffffffffffffffffffffffffffffffffffffff021916908373ffffffffffffffffffffffffffffffffffffffff1602179055506020820151816001015560408201518160020155606082015181600301555050600060016003805490506109e09190611a72565b90507ffa88d81eaffbf548e3ffc6c6458827ce9906ad714060746b80909cdf8d1d7ef781604051610a11919061190d565b60405180910390a1505050565b60008060038381548110610a5b577f4e487b7100000000000000000000000000000000000000000000000000000000600052603260045260246000fd5b906000526020600020906004020190508060030154915050919050565b60038181548110610a8857600080fd5b90600052602060002090600402016000915090508060000160009054906101000a900473ffffffffffffffffffffffffffffffffffffffff16908060010154908060020154908060030154905084565b6004602052816000526040600020602052806000526040600020600091509150508060000154908060010154908060020154905083565b60008111610b52576040517f08c379a0000000000000000000000000000000000000000000000000000000008152600401610b49906118ad565b60405180910390fd5b600060038381548110610b8e577f4e487b7100000000000000000000000000000000000000000000000000000000600052603260045260246000fd5b9060005260206000209060040201905060006004600085815260200190815260200160002060003373ffffffffffffffffffffffffffffffffffffffff1673ffffffffffffffffffffffffffffffffffffffff1681526020019081526020016000209050610bfb8461067c565b82816000016000828254610c0f9190611991565b9250508190555064e8d4a5100082600301548260000154610c309190611a18565b610c3a91906119e7565b816002018190555082826001016000828254610c569190611991565b92505081905550833373ffffffffffffffffffffffffffffffffffffffff167f90890809c654f11d6e72a28fa60149770a0d11ec6c92319d6ceb2bb0a4ea1a1585604051610ca4919061190d565b60405180910390a3610cfd3330858560000160009054906101000a900473ffffffffffffffffffffffffffffffffffffffff1673ffffffffffffffffffffffffffffffffffffffff166110aa909392919063ffffffff16565b50505050565b610d0b610f68565b600073ffffffffffffffffffffffffffffffffffffffff168173ffffffffffffffffffffffffffffffffffffffff161415610d7b576040517f08c379a0000000000000000000000000000000000000000000000000000000008152600401610d729061182d565b60405180910390fd5b610d8481610fe6565b50565b600160009054906101000a900473ffffffffffffffffffffffffffffffffffffffff1681565b60006004600083815260200190815260200160002060003373ffffffffffffffffffffffffffffffffffffffff1673ffffffffffffffffffffffffffffffffffffffff168152602001908152602001600020600001549050919050565b610e8b8363a9059cbb60e01b8484604051602401610e29929190611782565b604051602081830303815290604052907bffffffffffffffffffffffffffffffffffffffffffffffffffffffff19166020820180517bffffffffffffffffffffffffffffffffffffffffffffffffffffffff8381831617835250505050611133565b505050565b600060038281548110610ecc577f4e487b7100000000000000000000000000000000000000000000000000000000600052603260045260246000fd5b90600052602060002090600402019050600081600101541415610ef85743816002018190555050610f65565b6000816002015443610f0a9190611a72565b9050600060025482610f1c9190611a18565b9050826001015464e8d4a5100082610f349190611a18565b610f3e91906119e7565b836003016000828254610f519190611991565b925050819055504383600201819055505050505b50565b610f706111fa565b73ffffffffffffffffffffffffffffffffffffffff16610f8e6108c8565b73ffffffffffffffffffffffffffffffffffffffff1614610fe4576040517f08c379a0000000000000000000000000000000000000000000000000000000008152600401610fdb9061188d565b60405180910390fd5b565b60008060009054906101000a900473ffffffffffffffffffffffffffffffffffffffff169050816000806101000a81548173ffffffffffffffffffffffffffffffffffffffff021916908373ffffffffffffffffffffffffffffffffffffffff1602179055508173ffffffffffffffffffffffffffffffffffffffff168173ffffffffffffffffffffffffffffffffffffffff167f8be0079c531659141344cd1fd0a4f28419497f9722a3daafe3b4186f6b6457e060405160405180910390a35050565b61112d846323b872dd60e01b8585856040516024016110cb9392919061174b565b604051602081830303815290604052907bffffffffffffffffffffffffffffffffffffffffffffffffffffffff19166020820180517bffffffffffffffffffffffffffffffffffffffffffffffffffffffff8381831617835250505050611133565b50505050565b6000611195826040518060400160405280602081526020017f5361666545524332303a206c6f772d6c6576656c2063616c6c206661696c65648152508573ffffffffffffffffffffffffffffffffffffffff166112029092919063ffffffff16565b90506000815111156111f557808060200190518101906111b5919061148b565b6111f4576040517f08c379a00000000000000000000000000000000000000000000000000000000081526004016111eb906118ed565b60405180910390fd5b5b505050565b600033905090565b6060611211848460008561121a565b90509392505050565b60608247101561125f576040517f08c379a00000000000000000000000000000000000000000000000000000000081526004016112569061184d565b60405180910390fd5b6000808673ffffffffffffffffffffffffffffffffffffffff1685876040516112889190611719565b60006040518083038185875af1925050503d80600081146112c5576040519150601f19603f3d011682016040523d82523d6000602084013e6112ca565b606091505b50915091506112db878383876112e7565b92505050949350505050565b6060831561134a57600083511415611342576113028561135d565b611341576040517f08c379a0000000000000000000000000000000000000000000000000000000008152600401611338906118cd565b60405180910390fd5b5b829050611355565b6113548383611380565b5b949350505050565b6000808273ffffffffffffffffffffffffffffffffffffffff163b119050919050565b6000825111156113935781518083602001fd5b806040517f08c379a00000000000000000000000000000000000000000000000000000000081526004016113c7919061180b565b60405180910390fd5b6040518060800160405280600073ffffffffffffffffffffffffffffffffffffffff1681526020016000815260200160008152602001600081525090565b60008135905061141d81611d7b565b92915050565b60008151905061143281611d92565b92915050565b60008135905061144781611da9565b92915050565b60008135905061145c81611dc0565b92915050565b60006020828403121561147457600080fd5b60006114828482850161140e565b91505092915050565b60006020828403121561149d57600080fd5b60006114ab84828501611423565b91505092915050565b6000602082840312156114c657600080fd5b60006114d484828501611438565b91505092915050565b6000602082840312156114ef57600080fd5b60006114fd8482850161144d565b91505092915050565b6000806040838503121561151957600080fd5b60006115278582860161144d565b92505060206115388582860161140e565b9150509250929050565b6000806040838503121561155557600080fd5b60006115638582860161144d565b92505060206115748582860161144d565b9150509250929050565b61158781611aa6565b82525050565b60006115988261195f565b6115a28185611975565b93506115b2818560208601611b48565b80840191505092915050565b6115c781611b00565b82525050565b6115d681611b24565b82525050565b60006115e78261196a565b6115f18185611980565b9350611601818560208601611b48565b61160a81611bd9565b840191505092915050565b6000611622602683611980565b915061162d82611bea565b604082019050919050565b6000611645602683611980565b915061165082611c39565b604082019050919050565b6000611668601d83611980565b915061167382611c88565b602082019050919050565b600061168b602083611980565b915061169682611cb1565b602082019050919050565b60006116ae601c83611980565b91506116b982611cda565b602082019050919050565b60006116d1601d83611980565b91506116dc82611d03565b602082019050919050565b60006116f4602a83611980565b91506116ff82611d2c565b604082019050919050565b61171381611af6565b82525050565b6000611725828461158d565b915081905092915050565b6000602082019050611745600083018461157e565b92915050565b6000606082019050611760600083018661157e565b61176d602083018561157e565b61177a604083018461170a565b949350505050565b6000604082019050611797600083018561157e565b6117a4602083018461170a565b9392505050565b60006080820190506117c060008301876115be565b6117cd602083018661170a565b6117da604083018561170a565b6117e7606083018461170a565b95945050505050565b600060208201905061180560008301846115cd565b92915050565b6000602082019050818103600083015261182581846115dc565b905092915050565b6000602082019050818103600083015261184681611615565b9050919050565b6000602082019050818103600083015261186681611638565b9050919050565b600060208201905081810360008301526118868161165b565b9050919050565b600060208201905081810360008301526118a68161167e565b9050919050565b600060208201905081810360008301526118c6816116a1565b9050919050565b600060208201905081810360008301526118e6816116c4565b9050919050565b60006020820190508181036000830152611906816116e7565b9050919050565b6000602082019050611922600083018461170a565b92915050565b600060608201905061193d600083018661170a565b61194a602083018561170a565b611957604083018461170a565b949350505050565b600081519050919050565b600081519050919050565b600081905092915050565b600082825260208201905092915050565b600061199c82611af6565b91506119a783611af6565b9250827fffffffffffffffffffffffffffffffffffffffffffffffffffffffffffffffff038211156119dc576119db611b7b565b5b828201905092915050565b60006119f282611af6565b91506119fd83611af6565b925082611a0d57611a0c611baa565b5b828204905092915050565b6000611a2382611af6565b9150611a2e83611af6565b9250817fffffffffffffffffffffffffffffffffffffffffffffffffffffffffffffffff0483118215151615611a6757611a66611b7b565b5b828202905092915050565b6000611a7d82611af6565b9150611a8883611af6565b925082821015611a9b57611a9a611b7b565b5b828203905092915050565b6000611ab182611ad6565b9050919050565b60008115159050919050565b6000611acf82611aa6565b9050919050565b600073ffffffffffffffffffffffffffffffffffffffff82169050919050565b6000819050919050565b6000611b0b82611b12565b9050919050565b6000611b1d82611ad6565b9050919050565b6000611b2f82611b36565b9050919050565b6000611b4182611ad6565b9050919050565b60005b83811015611b66578082015181840152602081019050611b4b565b83811115611b75576000848401525b50505050565b7f4e487b7100000000000000000000000000000000000000000000000000000000600052601160045260246000fd5b7f4e487b7100000000000000000000000000000000000000000000000000000000600052601260045260246000fd5b6000601f19601f8301169050919050565b7f4f776e61626c653a206e6577206f776e657220697320746865207a65726f206160008201527f6464726573730000000000000000000000000000000000000000000000000000602082015250565b7f416464726573733a20696e73756666696369656e742062616c616e636520666f60008201527f722063616c6c0000000000000000000000000000000000000000000000000000602082015250565b7f576974686472617720616d6f756e742063616e2774206265207a65726f000000600082015250565b7f4f776e61626c653a2063616c6c6572206973206e6f7420746865206f776e6572600082015250565b7f4465706f73697420616d6f756e742063616e2774206265207a65726f00000000600082015250565b7f416464726573733a2063616c6c20746f206e6f6e2d636f6e7472616374000000600082015250565b7f5361666545524332303a204552433230206f7065726174696f6e20646964206e60008201527f6f74207375636365656400000000000000000000000000000000000000000000602082015250565b611d8481611aa6565b8114611d8f57600080fd5b50565b611d9b81611ab8565b8114611da657600080fd5b50565b611db281611ac4565b8114611dbd57600080fd5b50565b611dc981611af6565b8114611dd457600080fd5b5056fea264697066735822122067e4926af943fec2759b994e274a32a4a41433dc7c85243cedd651edd052c00364736f6c63430008040033",
  "immutableReferences": {},
  "source": "//SPDX-License-Identifier: Unlicense\npragma solidity 0.8.4;\n\n\nimport \"@openzeppelin/contracts/token/ERC20/IERC20.sol\";\nimport \"@openzeppelin/contracts/token/ERC20/utils/SafeERC20.sol\";\nimport \"@openzeppelin/contracts/access/Ownable.sol\";\nimport \"./RewardToken.sol\";\n\ncontract StakingManager is Ownable{\n    using SafeERC20 for IERC20; // Wrappers around ERC20 operations that throw on failure\n\n    RewardToken public rewardToken; // Token to be payed as reward\n\n    uint256 private rewardTokensPerBlock; // Number of reward tokens minted per block\n    uint256 private constant REWARDS_PRECISION = 1e12; // A big number to perform mul and div operations\n\n    // Staking user for a pool\n    struct PoolStaker {\n        uint256 amount; // The tokens quantity the user has staked.\n        uint256 rewards; // The reward tokens quantity the user can harvest\n        uint256 rewardDebt; // The amount relative to accumulatedRewardsPerShare the user can't get as reward\n    }\n\n    // Staking pool\n    struct Pool {\n        IERC20 stakeToken; // Token to be staked\n        uint256 tokensStaked; // Total tokens staked\n        uint256 lastRewardedBlock; // Last block number the user had their rewards calculated\n        uint256 accumulatedRewardsPerShare; // Accumulated rewards per share times REWARDS_PRECISION\n    }\n\n    Pool[] public pools; // Staking pools\n\n    // Mapping poolId => staker address => PoolStaker\n    mapping(uint256 => mapping(address => PoolStaker)) public poolStakers;\n\n    // Events\n    event Deposit(address indexed user, uint256 indexed poolId, uint256 amount);\n    event Withdraw(address indexed user, uint256 indexed poolId, uint256 amount);\n    event HarvestRewards(address indexed user, uint256 indexed poolId, uint256 amount);\n    event PoolCreated(uint256 poolId);\n\n    // Constructor\n    constructor(address _rewardTokenAddress, uint256 _rewardTokensPerBlock) {\n        rewardToken = RewardToken(_rewardTokenAddress);\n        rewardTokensPerBlock = _rewardTokensPerBlock;\n    }\n\n    /**\n     * @dev Create a new staking pool\n     */\n    function createPool(IERC20 _stakeToken) external onlyOwner {\n        Pool memory pool;\n        pool.stakeToken = _stakeToken;\n        pools.push(pool);\n        uint256 poolId = pools.length - 1;\n        emit PoolCreated(poolId);\n    }\n\n    /**\n     * @dev Deposit tokens to an existing pool\n     */\n    function deposit(uint256 _poolId, uint256 _amount) external {\n        require(_amount > 0, \"Deposit amount can't be zero\");\n        Pool storage pool = pools[_poolId];\n        PoolStaker storage staker = poolStakers[_poolId][msg.sender];\n\n        // Update pool stakers\n        harvestRewards(_poolId);\n\n        // Update current staker\n        staker.amount += _amount;\n        staker.rewardDebt = staker.amount * pool.accumulatedRewardsPerShare / REWARDS_PRECISION;\n\n        // Update pool\n        pool.tokensStaked += _amount;\n\n        // Deposit tokens\n        emit Deposit(msg.sender, _poolId, _amount);\n        pool.stakeToken.safeTransferFrom(\n            address(msg.sender),\n            address(this),\n            _amount\n        );\n    }\n\n    /**\n     * @dev Withdraw all tokens from an existing pool\n     */\n    function withdraw(uint256 _poolId) external {\n        Pool storage pool = pools[_poolId];\n        PoolStaker storage staker = poolStakers[_poolId][msg.sender];\n        uint256 amount = staker.amount;\n        require(amount > 0, \"Withdraw amount can't be zero\");\n\n        // Pay rewards\n        harvestRewards(_poolId);\n\n        // Update staker\n        staker.amount = 0;\n        staker.rewardDebt = staker.amount * pool.accumulatedRewardsPerShare / REWARDS_PRECISION;\n\n        // Update pool\n        pool.tokensStaked -= amount;\n\n        // Withdraw tokens\n        emit Withdraw(msg.sender, _poolId, amount);\n        pool.stakeToken.safeTransfer(\n            address(msg.sender),\n            amount\n        );\n    }\n\n    /**\n     * @dev Harvest user rewards from a given pool id\n     */\n    function harvestRewards(uint256 _poolId) public {\n        updatePoolRewards(_poolId);\n        Pool storage pool = pools[_poolId];\n        PoolStaker storage staker = poolStakers[_poolId][msg.sender];\n        uint256 rewardsToHarvest = (staker.amount * pool.accumulatedRewardsPerShare / REWARDS_PRECISION) - staker.rewardDebt;\n        if (rewardsToHarvest == 0) {\n            staker.rewardDebt = staker.amount * pool.accumulatedRewardsPerShare / REWARDS_PRECISION;\n            return;\n        }\n        staker.rewards = 0;\n        staker.rewardDebt = staker.amount * pool.accumulatedRewardsPerShare / REWARDS_PRECISION;\n        emit HarvestRewards(msg.sender, _poolId, rewardsToHarvest);\n        rewardToken.mint(msg.sender, rewardsToHarvest);\n    }\n\n    /**\n     * @dev Update pool's accumulatedRewardsPerShare and lastRewardedBlock\n     */\n    function updatePoolRewards(uint256 _poolId) private {\n        Pool storage pool = pools[_poolId];\n        if (pool.tokensStaked == 0) {\n            pool.lastRewardedBlock = block.number;\n            return;\n        }\n        uint256 blocksSinceLastReward = block.number - pool.lastRewardedBlock;\n        uint256 rewards = blocksSinceLastReward * rewardTokensPerBlock;\n        pool.accumulatedRewardsPerShare += (rewards * REWARDS_PRECISION / pool.tokensStaked);\n        pool.lastRewardedBlock = block.number;\n    }\n    \n    /**\n     * @dev Get user total rewards\n     */\n    function getTotalRewards(uint256 _poolId) public view returns(uint256) {\n        Pool storage pool = pools[_poolId];\n\n        if (pool.tokensStaked != 0) {\n\n            PoolStaker storage staker = poolStakers[_poolId][msg.sender];\n\n            uint256 blocksSinceLastReward = block.number - pool.lastRewardedBlock;\n            uint256 rewards = blocksSinceLastReward * rewardTokensPerBlock;\n            uint256 accumulatedRewardsPerShare = pool.accumulatedRewardsPerShare + (rewards * REWARDS_PRECISION / pool.tokensStaked);\n            uint256 rewardsToHarvest = (staker.amount * accumulatedRewardsPerShare / REWARDS_PRECISION) - staker.rewardDebt;\n\n            return rewardsToHarvest;\n        }\n\n        return 0;\n    }\n\n    /**\n     * @dev Get user staked\n     */\n    function getStaked(uint256 _poolId) public view returns(uint256) {\n        return poolStakers[_poolId][msg.sender].amount;\n    }\n\n    /**\n     * @dev Get pool total staked\n     */\n    function getTotalStaked(uint256 _poolId) public view returns(uint256) {\n        Pool storage pool = pools[_poolId];\n        return pool.tokensStaked;\n    }\n\n    /**\n     * @dev Get current pool reward per share\n     */\n    function getRewardPerShare(uint256 _poolId) public view returns(uint256) {\n        Pool storage pool = pools[_poolId];\n        return pool.accumulatedRewardsPerShare;\n    }\n    \n}",
  "sourcePath": "/home/kang/Elwin/Dapp-demo-kang/frontend/src/contracts/StakingManager.sol",
  "compiler": {
    "name": "solc",
    "version": "0.8.4+commit.c7e474f2.Emscripten.clang"
  },
  "schemaVersion": "3.2.3",
  "updatedAt": "2022-12-02T03:23:14.865Z",
  "networkType": "ethereum",
  "devdoc": {
    "kind": "dev",
    "methods": {
      "createPool(address)": {
        "details": "Create a new staking pool"
      },
      "deposit(uint256,uint256)": {
        "details": "Deposit tokens to an existing pool"
      },
      "getRewardPerShare(uint256)": {
        "details": "Get current pool reward per share"
      },
      "getStaked(uint256)": {
        "details": "Get user staked"
      },
      "getTotalRewards(uint256)": {
        "details": "Get user total rewards"
      },
      "getTotalStaked(uint256)": {
        "details": "Get pool total staked"
      },
      "harvestRewards(uint256)": {
        "details": "Harvest user rewards from a given pool id"
      },
      "owner()": {
        "details": "Returns the address of the current owner."
      },
      "renounceOwnership()": {
        "details": "Leaves the contract without owner. It will not be possible to call `onlyOwner` functions anymore. Can only be called by the current owner. NOTE: Renouncing ownership will leave the contract without an owner, thereby removing any functionality that is only available to the owner."
      },
      "transferOwnership(address)": {
        "details": "Transfers ownership of the contract to a new account (`newOwner`). Can only be called by the current owner."
      },
      "withdraw(uint256)": {
        "details": "Withdraw all tokens from an existing pool"
      }
    },
    "version": 1
  },
  "userdoc": {
    "kind": "user",
    "methods": {},
    "version": 1
  }
}