{
  "contractName": "StakingManager",
  "abi": [
    {
      "inputs": [
        {
          "internalType": "address",
          "name": "_rewardTokenAddress",
          "type": "address"
        },
        {
          "internalType": "uint256",
          "name": "_rewardTokensPerBlock",
          "type": "uint256"
        }
      ],
      "stateMutability": "nonpayable",
      "type": "constructor"
    },
    {
      "anonymous": false,
      "inputs": [
        {
          "indexed": true,
          "internalType": "address",
          "name": "user",
          "type": "address"
        },
        {
          "indexed": true,
          "internalType": "uint256",
          "name": "poolId",
          "type": "uint256"
        },
        {
          "indexed": false,
          "internalType": "uint256",
          "name": "amount",
          "type": "uint256"
        }
      ],
      "name": "Deposit",
      "type": "event"
    },
    {
      "anonymous": false,
      "inputs": [
        {
          "indexed": true,
          "internalType": "address",
          "name": "user",
          "type": "address"
        },
        {
          "indexed": true,
          "internalType": "uint256",
          "name": "poolId",
          "type": "uint256"
        },
        {
          "indexed": false,
          "internalType": "uint256",
          "name": "amount",
          "type": "uint256"
        }
      ],
      "name": "HarvestRewards",
      "type": "event"
    },
    {
      "anonymous": false,
      "inputs": [
        {
          "indexed": true,
          "internalType": "address",
          "name": "previousOwner",
          "type": "address"
        },
        {
          "indexed": true,
          "internalType": "address",
          "name": "newOwner",
          "type": "address"
        }
      ],
      "name": "OwnershipTransferred",
      "type": "event"
    },
    {
      "anonymous": false,
      "inputs": [
        {
          "indexed": false,
          "internalType": "uint256",
          "name": "poolId",
          "type": "uint256"
        }
      ],
      "name": "PoolCreated",
      "type": "event"
    },
    {
      "anonymous": false,
      "inputs": [
        {
          "indexed": true,
          "internalType": "address",
          "name": "user",
          "type": "address"
        },
        {
          "indexed": true,
          "internalType": "uint256",
          "name": "poolId",
          "type": "uint256"
        },
        {
          "indexed": false,
          "internalType": "uint256",
          "name": "amount",
          "type": "uint256"
        }
      ],
      "name": "Withdraw",
      "type": "event"
    },
    {
      "inputs": [],
      "name": "owner",
      "outputs": [
        {
          "internalType": "address",
          "name": "",
          "type": "address"
        }
      ],
      "stateMutability": "view",
      "type": "function",
      "constant": true
    },
    {
      "inputs": [
        {
          "internalType": "uint256",
          "name": "",
          "type": "uint256"
        },
        {
          "internalType": "address",
          "name": "",
          "type": "address"
        }
      ],
      "name": "poolStakers",
      "outputs": [
        {
          "internalType": "uint256",
          "name": "amount",
          "type": "uint256"
        },
        {
          "internalType": "uint256",
          "name": "rewards",
          "type": "uint256"
        },
        {
          "internalType": "uint256",
          "name": "rewardDebt",
          "type": "uint256"
        }
      ],
      "stateMutability": "view",
      "type": "function",
      "constant": true
    },
    {
      "inputs": [
        {
          "internalType": "uint256",
          "name": "",
          "type": "uint256"
        }
      ],
      "name": "pools",
      "outputs": [
        {
          "internalType": "contract IERC20",
          "name": "stakeToken",
          "type": "address"
        },
        {
          "internalType": "uint256",
          "name": "tokensStaked",
          "type": "uint256"
        },
        {
          "internalType": "uint256",
          "name": "lastRewardedBlock",
          "type": "uint256"
        },
        {
          "internalType": "uint256",
          "name": "accumulatedRewardsPerShare",
          "type": "uint256"
        }
      ],
      "stateMutability": "view",
      "type": "function",
      "constant": true
    },
    {
      "inputs": [],
      "name": "renounceOwnership",
      "outputs": [],
      "stateMutability": "nonpayable",
      "type": "function"
    },
    {
      "inputs": [],
      "name": "rewardToken",
      "outputs": [
        {
          "internalType": "contract RewardToken",
          "name": "",
          "type": "address"
        }
      ],
      "stateMutability": "view",
      "type": "function",
      "constant": true
    },
    {
      "inputs": [
        {
          "internalType": "address",
          "name": "newOwner",
          "type": "address"
        }
      ],
      "name": "transferOwnership",
      "outputs": [],
      "stateMutability": "nonpayable",
      "type": "function"
    },
    {
      "inputs": [
        {
          "internalType": "contract IERC20",
          "name": "_stakeToken",
          "type": "address"
        }
      ],
      "name": "createPool",
      "outputs": [],
      "stateMutability": "nonpayable",
      "type": "function"
    },
    {
      "inputs": [
        {
          "internalType": "uint256",
          "name": "_poolId",
          "type": "uint256"
        },
        {
          "internalType": "uint256",
          "name": "_amount",
          "type": "uint256"
        }
      ],
      "name": "deposit",
      "outputs": [],
      "stateMutability": "nonpayable",
      "type": "function"
    },
    {
      "inputs": [
        {
          "internalType": "uint256",
          "name": "_poolId",
          "type": "uint256"
        }
      ],
      "name": "withdraw",
      "outputs": [],
      "stateMutability": "nonpayable",
      "type": "function"
    },
    {
      "inputs": [
        {
          "internalType": "uint256",
          "name": "_poolId",
          "type": "uint256"
        }
      ],
      "name": "harvestRewards",
      "outputs": [],
      "stateMutability": "nonpayable",
      "type": "function"
    },
    {
      "inputs": [
        {
          "internalType": "uint256",
          "name": "_poolId",
          "type": "uint256"
        }
      ],
      "name": "getTotalRewards",
      "outputs": [
        {
          "internalType": "uint256",
          "name": "",
          "type": "uint256"
        }
      ],
      "stateMutability": "view",
      "type": "function",
      "constant": true
    },
    {
      "inputs": [
        {
          "internalType": "uint256",
          "name": "_poolId",
          "type": "uint256"
        },
        {
          "internalType": "address",
          "name": "user",
          "type": "address"
        }
      ],
      "name": "getStaked",
      "outputs": [
        {
          "internalType": "uint256",
          "name": "",
          "type": "uint256"
        }
      ],
      "stateMutability": "view",
      "type": "function",
      "constant": true
    },
    {
      "inputs": [
        {
          "internalType": "uint256",
          "name": "_poolId",
          "type": "uint256"
        }
      ],
      "name": "getTotalStaked",
      "outputs": [
        {
          "internalType": "uint256",
          "name": "",
          "type": "uint256"
        }
      ],
      "stateMutability": "view",
      "type": "function",
      "constant": true
    },
    {
      "inputs": [
        {
          "internalType": "uint256",
          "name": "_poolId",
          "type": "uint256"
        }
      ],
      "name": "getRewardPerShare",
      "outputs": [
        {
          "internalType": "uint256",
          "name": "",
          "type": "uint256"
        }
      ],
      "stateMutability": "view",
      "type": "function",
      "constant": true
    }
  ],
  "bytecode": "0x60806040523480156200001157600080fd5b5060405162002072380380620020728339818101604052810190620000379190620001a1565b620000576200004b620000a760201b60201c565b620000af60201b60201c565b81600160006101000a81548173ffffffffffffffffffffffffffffffffffffffff021916908373ffffffffffffffffffffffffffffffffffffffff16021790555080600281905550505062000254565b600033905090565b60008060009054906101000a900473ffffffffffffffffffffffffffffffffffffffff169050816000806101000a81548173ffffffffffffffffffffffffffffffffffffffff021916908373ffffffffffffffffffffffffffffffffffffffff1602179055508173ffffffffffffffffffffffffffffffffffffffff168173ffffffffffffffffffffffffffffffffffffffff167f8be0079c531659141344cd1fd0a4f28419497f9722a3daafe3b4186f6b6457e060405160405180910390a35050565b600081519050620001848162000220565b92915050565b6000815190506200019b816200023a565b92915050565b60008060408385031215620001b557600080fd5b6000620001c58582860162000173565b9250506020620001d8858286016200018a565b9150509250929050565b6000620001ef82620001f6565b9050919050565b600073ffffffffffffffffffffffffffffffffffffffff82169050919050565b6000819050919050565b6200022b81620001e2565b81146200023757600080fd5b50565b620002458162000216565b81146200025157600080fd5b50565b611e0e80620002646000396000f3fe608060405234801561001057600080fd5b50600436106100ea5760003560e01c80639049f9d21161008c578063b798aaae11610066578063b798aaae1461025e578063e2bbb15814610290578063f2fde38b146102ac578063f7c618c1146102c8576100ea565b80639049f9d2146101df578063993b21c1146101fb578063ac4afa381461022b576100ea565b8063552164ee116100c8578063552164ee1461016b57806357126d0d1461019b578063715018a6146101b75780638da5cb5b146101c1576100ea565b80632e1a7d4d146100ef5780632f8899f31461010b57806340531d5d1461013b575b600080fd5b610109600480360381019061010491906114de565b6102e6565b005b610125600480360381019061012091906114de565b6104d0565b604051610132919061190e565b60405180910390f35b61015560048036038101906101509190611507565b61052a565b604051610162919061190e565b60405180910390f35b610185600480360381019061018091906114de565b610588565b604051610192919061190e565b60405180910390f35b6101b560048036038101906101b091906114de565b6106da565b005b6101bf610912565b005b6101c9610926565b6040516101d69190611731565b60405180910390f35b6101f960048036038101906101f491906114b5565b61094f565b005b610215600480360381019061021091906114de565b610a7c565b604051610222919061190e565b60405180910390f35b610245600480360381019061024091906114de565b610ad6565b60405161025594939291906117ac565b60405180910390f35b61027860048036038101906102739190611507565b610b36565b60405161028793929190611929565b60405180910390f35b6102aa60048036038101906102a59190611543565b610b6d565b005b6102c660048036038101906102c19190611463565b610d61565b005b6102d0610de5565b6040516102dd91906117f1565b60405180910390f35b600060038281548110610322577f4e487b7100000000000000000000000000000000000000000000000000000000600052603260045260246000fd5b9060005260206000209060040201905060006004600084815260200190815260200160002060003373ffffffffffffffffffffffffffffffffffffffff1673ffffffffffffffffffffffffffffffffffffffff1681526020019081526020016000209050600081600001549050600081116103d2576040517f08c379a00000000000000000000000000000000000000000000000000000000081526004016103c99061186e565b60405180910390fd5b6103db846106da565b6000826000018190555064e8d4a51000836003015483600001546103ff9190611a19565b61040991906119e8565b8260020181905550808360010160008282546104259190611a73565b92505081905550833373ffffffffffffffffffffffffffffffffffffffff167ff279e6a1f5e320cca91135676d9cb6e44ca8a08c0b88342bcdb1144f6511b56883604051610473919061190e565b60405180910390a36104ca33828560000160009054906101000a900473ffffffffffffffffffffffffffffffffffffffff1673ffffffffffffffffffffffffffffffffffffffff16610e0b9092919063ffffffff16565b50505050565b6000806003838154811061050d577f4e487b7100000000000000000000000000000000000000000000000000000000600052603260045260246000fd5b906000526020600020906004020190508060010154915050919050565b60006004600084815260200190815260200160002060008373ffffffffffffffffffffffffffffffffffffffff1673ffffffffffffffffffffffffffffffffffffffff16815260200190815260200160002060000154905092915050565b600080600383815481106105c5577f4e487b7100000000000000000000000000000000000000000000000000000000600052603260045260246000fd5b9060005260206000209060040201905060008160010154146106cf5760006004600085815260200190815260200160002060003373ffffffffffffffffffffffffffffffffffffffff1673ffffffffffffffffffffffffffffffffffffffff168152602001908152602001600020905060008260020154436106479190611a73565b90506000600254826106599190611a19565b90506000846001015464e8d4a51000836106739190611a19565b61067d91906119e8565b856003015461068c9190611992565b90506000846002015464e8d4a510008387600001546106ab9190611a19565b6106b591906119e8565b6106bf9190611a73565b90508096505050505050506106d5565b60009150505b919050565b6106e381610e91565b60006003828154811061071f577f4e487b7100000000000000000000000000000000000000000000000000000000600052603260045260246000fd5b9060005260206000209060040201905060006004600084815260200190815260200160002060003373ffffffffffffffffffffffffffffffffffffffff1673ffffffffffffffffffffffffffffffffffffffff16815260200190815260200160002090506000816002015464e8d4a51000846003015484600001546107a49190611a19565b6107ae91906119e8565b6107b89190611a73565b905060008114156107f75764e8d4a51000836003015483600001546107dd9190611a19565b6107e791906119e8565b826002018190555050505061090f565b6000826001018190555064e8d4a510008360030154836000015461081b9190611a19565b61082591906119e8565b8260020181905550833373ffffffffffffffffffffffffffffffffffffffff167fbc9a2b6a61d1b15cc1adefc67f9e37aaca7c34f43080954178be6eb9c6f23df683604051610874919061190e565b60405180910390a3600160009054906101000a900473ffffffffffffffffffffffffffffffffffffffff1673ffffffffffffffffffffffffffffffffffffffff166340c10f1933836040518363ffffffff1660e01b81526004016108d9929190611783565b600060405180830381600087803b1580156108f357600080fd5b505af1158015610907573d6000803e3d6000fd5b505050505050505b50565b61091a610f69565b6109246000610fe7565b565b60008060009054906101000a900473ffffffffffffffffffffffffffffffffffffffff16905090565b610957610f69565b61095f6113d1565b81816000019073ffffffffffffffffffffffffffffffffffffffff16908173ffffffffffffffffffffffffffffffffffffffff1681525050600381908060018154018082558091505060019003906000526020600020906004020160009091909190915060008201518160000160006101000a81548173ffffffffffffffffffffffffffffffffffffffff021916908373ffffffffffffffffffffffffffffffffffffffff160217905550602082015181600101556040820151816002015560608201518160030155505060006001600380549050610a3e9190611a73565b90507ffa88d81eaffbf548e3ffc6c6458827ce9906ad714060746b80909cdf8d1d7ef781604051610a6f919061190e565b60405180910390a1505050565b60008060038381548110610ab9577f4e487b7100000000000000000000000000000000000000000000000000000000600052603260045260246000fd5b906000526020600020906004020190508060030154915050919050565b60038181548110610ae657600080fd5b90600052602060002090600402016000915090508060000160009054906101000a900473ffffffffffffffffffffffffffffffffffffffff16908060010154908060020154908060030154905084565b6004602052816000526040600020602052806000526040600020600091509150508060000154908060010154908060020154905083565b60008111610bb0576040517f08c379a0000000000000000000000000000000000000000000000000000000008152600401610ba7906118ae565b60405180910390fd5b600060038381548110610bec577f4e487b7100000000000000000000000000000000000000000000000000000000600052603260045260246000fd5b9060005260206000209060040201905060006004600085815260200190815260200160002060003373ffffffffffffffffffffffffffffffffffffffff1673ffffffffffffffffffffffffffffffffffffffff1681526020019081526020016000209050610c59846106da565b82816000016000828254610c6d9190611992565b9250508190555064e8d4a5100082600301548260000154610c8e9190611a19565b610c9891906119e8565b816002018190555082826001016000828254610cb49190611992565b92505081905550833373ffffffffffffffffffffffffffffffffffffffff167f90890809c654f11d6e72a28fa60149770a0d11ec6c92319d6ceb2bb0a4ea1a1585604051610d02919061190e565b60405180910390a3610d5b3330858560000160009054906101000a900473ffffffffffffffffffffffffffffffffffffffff1673ffffffffffffffffffffffffffffffffffffffff166110ab909392919063ffffffff16565b50505050565b610d69610f69565b600073ffffffffffffffffffffffffffffffffffffffff168173ffffffffffffffffffffffffffffffffffffffff161415610dd9576040517f08c379a0000000000000000000000000000000000000000000000000000000008152600401610dd09061182e565b60405180910390fd5b610de281610fe7565b50565b600160009054906101000a900473ffffffffffffffffffffffffffffffffffffffff1681565b610e8c8363a9059cbb60e01b8484604051602401610e2a929190611783565b604051602081830303815290604052907bffffffffffffffffffffffffffffffffffffffffffffffffffffffff19166020820180517bffffffffffffffffffffffffffffffffffffffffffffffffffffffff8381831617835250505050611134565b505050565b600060038281548110610ecd577f4e487b7100000000000000000000000000000000000000000000000000000000600052603260045260246000fd5b90600052602060002090600402019050600081600101541415610ef95743816002018190555050610f66565b6000816002015443610f0b9190611a73565b9050600060025482610f1d9190611a19565b9050826001015464e8d4a5100082610f359190611a19565b610f3f91906119e8565b836003016000828254610f529190611992565b925050819055504383600201819055505050505b50565b610f716111fb565b73ffffffffffffffffffffffffffffffffffffffff16610f8f610926565b73ffffffffffffffffffffffffffffffffffffffff1614610fe5576040517f08c379a0000000000000000000000000000000000000000000000000000000008152600401610fdc9061188e565b60405180910390fd5b565b60008060009054906101000a900473ffffffffffffffffffffffffffffffffffffffff169050816000806101000a81548173ffffffffffffffffffffffffffffffffffffffff021916908373ffffffffffffffffffffffffffffffffffffffff1602179055508173ffffffffffffffffffffffffffffffffffffffff168173ffffffffffffffffffffffffffffffffffffffff167f8be0079c531659141344cd1fd0a4f28419497f9722a3daafe3b4186f6b6457e060405160405180910390a35050565b61112e846323b872dd60e01b8585856040516024016110cc9392919061174c565b604051602081830303815290604052907bffffffffffffffffffffffffffffffffffffffffffffffffffffffff19166020820180517bffffffffffffffffffffffffffffffffffffffffffffffffffffffff8381831617835250505050611134565b50505050565b6000611196826040518060400160405280602081526020017f5361666545524332303a206c6f772d6c6576656c2063616c6c206661696c65648152508573ffffffffffffffffffffffffffffffffffffffff166112039092919063ffffffff16565b90506000815111156111f657808060200190518101906111b6919061148c565b6111f5576040517f08c379a00000000000000000000000000000000000000000000000000000000081526004016111ec906118ee565b60405180910390fd5b5b505050565b600033905090565b6060611212848460008561121b565b90509392505050565b606082471015611260576040517f08c379a00000000000000000000000000000000000000000000000000000000081526004016112579061184e565b60405180910390fd5b6000808673ffffffffffffffffffffffffffffffffffffffff168587604051611289919061171a565b60006040518083038185875af1925050503d80600081146112c6576040519150601f19603f3d011682016040523d82523d6000602084013e6112cb565b606091505b50915091506112dc878383876112e8565b92505050949350505050565b6060831561134b57600083511415611343576113038561135e565b611342576040517f08c379a0000000000000000000000000000000000000000000000000000000008152600401611339906118ce565b60405180910390fd5b5b829050611356565b6113558383611381565b5b949350505050565b6000808273ffffffffffffffffffffffffffffffffffffffff163b119050919050565b6000825111156113945781518083602001fd5b806040517f08c379a00000000000000000000000000000000000000000000000000000000081526004016113c8919061180c565b60405180910390fd5b6040518060800160405280600073ffffffffffffffffffffffffffffffffffffffff1681526020016000815260200160008152602001600081525090565b60008135905061141e81611d7c565b92915050565b60008151905061143381611d93565b92915050565b60008135905061144881611daa565b92915050565b60008135905061145d81611dc1565b92915050565b60006020828403121561147557600080fd5b60006114838482850161140f565b91505092915050565b60006020828403121561149e57600080fd5b60006114ac84828501611424565b91505092915050565b6000602082840312156114c757600080fd5b60006114d584828501611439565b91505092915050565b6000602082840312156114f057600080fd5b60006114fe8482850161144e565b91505092915050565b6000806040838503121561151a57600080fd5b60006115288582860161144e565b92505060206115398582860161140f565b9150509250929050565b6000806040838503121561155657600080fd5b60006115648582860161144e565b92505060206115758582860161144e565b9150509250929050565b61158881611aa7565b82525050565b600061159982611960565b6115a38185611976565b93506115b3818560208601611b49565b80840191505092915050565b6115c881611b01565b82525050565b6115d781611b25565b82525050565b60006115e88261196b565b6115f28185611981565b9350611602818560208601611b49565b61160b81611bda565b840191505092915050565b6000611623602683611981565b915061162e82611beb565b604082019050919050565b6000611646602683611981565b915061165182611c3a565b604082019050919050565b6000611669601d83611981565b915061167482611c89565b602082019050919050565b600061168c602083611981565b915061169782611cb2565b602082019050919050565b60006116af601c83611981565b91506116ba82611cdb565b602082019050919050565b60006116d2601d83611981565b91506116dd82611d04565b602082019050919050565b60006116f5602a83611981565b915061170082611d2d565b604082019050919050565b61171481611af7565b82525050565b6000611726828461158e565b915081905092915050565b6000602082019050611746600083018461157f565b92915050565b6000606082019050611761600083018661157f565b61176e602083018561157f565b61177b604083018461170b565b949350505050565b6000604082019050611798600083018561157f565b6117a5602083018461170b565b9392505050565b60006080820190506117c160008301876115bf565b6117ce602083018661170b565b6117db604083018561170b565b6117e8606083018461170b565b95945050505050565b600060208201905061180660008301846115ce565b92915050565b6000602082019050818103600083015261182681846115dd565b905092915050565b6000602082019050818103600083015261184781611616565b9050919050565b6000602082019050818103600083015261186781611639565b9050919050565b600060208201905081810360008301526118878161165c565b9050919050565b600060208201905081810360008301526118a78161167f565b9050919050565b600060208201905081810360008301526118c7816116a2565b9050919050565b600060208201905081810360008301526118e7816116c5565b9050919050565b60006020820190508181036000830152611907816116e8565b9050919050565b6000602082019050611923600083018461170b565b92915050565b600060608201905061193e600083018661170b565b61194b602083018561170b565b611958604083018461170b565b949350505050565b600081519050919050565b600081519050919050565b600081905092915050565b600082825260208201905092915050565b600061199d82611af7565b91506119a883611af7565b9250827fffffffffffffffffffffffffffffffffffffffffffffffffffffffffffffffff038211156119dd576119dc611b7c565b5b828201905092915050565b60006119f382611af7565b91506119fe83611af7565b925082611a0e57611a0d611bab565b5b828204905092915050565b6000611a2482611af7565b9150611a2f83611af7565b9250817fffffffffffffffffffffffffffffffffffffffffffffffffffffffffffffffff0483118215151615611a6857611a67611b7c565b5b828202905092915050565b6000611a7e82611af7565b9150611a8983611af7565b925082821015611a9c57611a9b611b7c565b5b828203905092915050565b6000611ab282611ad7565b9050919050565b60008115159050919050565b6000611ad082611aa7565b9050919050565b600073ffffffffffffffffffffffffffffffffffffffff82169050919050565b6000819050919050565b6000611b0c82611b13565b9050919050565b6000611b1e82611ad7565b9050919050565b6000611b3082611b37565b9050919050565b6000611b4282611ad7565b9050919050565b60005b83811015611b67578082015181840152602081019050611b4c565b83811115611b76576000848401525b50505050565b7f4e487b7100000000000000000000000000000000000000000000000000000000600052601160045260246000fd5b7f4e487b7100000000000000000000000000000000000000000000000000000000600052601260045260246000fd5b6000601f19601f8301169050919050565b7f4f776e61626c653a206e6577206f776e657220697320746865207a65726f206160008201527f6464726573730000000000000000000000000000000000000000000000000000602082015250565b7f416464726573733a20696e73756666696369656e742062616c616e636520666f60008201527f722063616c6c0000000000000000000000000000000000000000000000000000602082015250565b7f576974686472617720616d6f756e742063616e2774206265207a65726f000000600082015250565b7f4f776e61626c653a2063616c6c6572206973206e6f7420746865206f776e6572600082015250565b7f4465706f73697420616d6f756e742063616e2774206265207a65726f00000000600082015250565b7f416464726573733a2063616c6c20746f206e6f6e2d636f6e7472616374000000600082015250565b7f5361666545524332303a204552433230206f7065726174696f6e20646964206e60008201527f6f74207375636365656400000000000000000000000000000000000000000000602082015250565b611d8581611aa7565b8114611d9057600080fd5b50565b611d9c81611ab9565b8114611da757600080fd5b50565b611db381611ac5565b8114611dbe57600080fd5b50565b611dca81611af7565b8114611dd557600080fd5b5056fea26469706673582212205be31e7662f9e6c7329063775c0d897a524d19de98b18d5e798229b84b3cc82f64736f6c63430008040033",
  "immutableReferences": {},
  "source": "//SPDX-License-Identifier: Unlicense\npragma solidity 0.8.4;\n\n\nimport \"@openzeppelin/contracts/token/ERC20/IERC20.sol\";\nimport \"@openzeppelin/contracts/token/ERC20/utils/SafeERC20.sol\";\nimport \"@openzeppelin/contracts/access/Ownable.sol\";\nimport \"./RewardToken.sol\";\n\ncontract StakingManager is Ownable{\n    using SafeERC20 for IERC20; // Wrappers around ERC20 operations that throw on failure\n\n    RewardToken public rewardToken; // Token to be payed as reward\n\n    uint256 private rewardTokensPerBlock; // Number of reward tokens minted per block\n    uint256 private constant REWARDS_PRECISION = 1e12; // A big number to perform mul and div operations\n\n    // Staking user for a pool\n    struct PoolStaker {\n        uint256 amount; // The tokens quantity the user has staked.\n        uint256 rewards; // The reward tokens quantity the user can harvest\n        uint256 rewardDebt; // The amount relative to accumulatedRewardsPerShare the user can't get as reward\n    }\n\n    // Staking pool\n    struct Pool {\n        IERC20 stakeToken; // Token to be staked\n        uint256 tokensStaked; // Total tokens staked\n        uint256 lastRewardedBlock; // Last block number the user had their rewards calculated\n        uint256 accumulatedRewardsPerShare; // Accumulated rewards per share times REWARDS_PRECISION\n    }\n\n    Pool[] public pools; // Staking pools\n\n    // Mapping poolId => staker address => PoolStaker\n    mapping(uint256 => mapping(address => PoolStaker)) public poolStakers;\n\n    // Events\n    event Deposit(address indexed user, uint256 indexed poolId, uint256 amount);\n    event Withdraw(address indexed user, uint256 indexed poolId, uint256 amount);\n    event HarvestRewards(address indexed user, uint256 indexed poolId, uint256 amount);\n    event PoolCreated(uint256 poolId);\n\n    // Constructor\n    constructor(address _rewardTokenAddress, uint256 _rewardTokensPerBlock) {\n        rewardToken = RewardToken(_rewardTokenAddress);\n        rewardTokensPerBlock = _rewardTokensPerBlock;\n    }\n\n    /**\n     * @dev Create a new staking pool\n     */\n    function createPool(IERC20 _stakeToken) external onlyOwner {\n        Pool memory pool;\n        pool.stakeToken = _stakeToken;\n        pools.push(pool);\n        uint256 poolId = pools.length - 1;\n        emit PoolCreated(poolId);\n    }\n\n    /**\n     * @dev Deposit tokens to an existing pool\n     */\n    function deposit(uint256 _poolId, uint256 _amount) external {\n        require(_amount > 0, \"Deposit amount can't be zero\");\n        Pool storage pool = pools[_poolId];\n        PoolStaker storage staker = poolStakers[_poolId][msg.sender];\n\n        // Update pool stakers\n        harvestRewards(_poolId);\n\n        // Update current staker\n        staker.amount += _amount;\n        staker.rewardDebt = staker.amount * pool.accumulatedRewardsPerShare / REWARDS_PRECISION;\n\n        // Update pool\n        pool.tokensStaked += _amount;\n\n        // Deposit tokens\n        emit Deposit(msg.sender, _poolId, _amount);\n        pool.stakeToken.safeTransferFrom(\n            address(msg.sender),\n            address(this),\n            _amount\n        );\n    }\n\n    /**\n     * @dev Withdraw all tokens from an existing pool\n     */\n    function withdraw(uint256 _poolId) external {\n        Pool storage pool = pools[_poolId];\n        PoolStaker storage staker = poolStakers[_poolId][msg.sender];\n        uint256 amount = staker.amount;\n        require(amount > 0, \"Withdraw amount can't be zero\");\n\n        // Pay rewards\n        harvestRewards(_poolId);\n\n        // Update staker\n        staker.amount = 0;\n        staker.rewardDebt = staker.amount * pool.accumulatedRewardsPerShare / REWARDS_PRECISION;\n\n        // Update pool\n        pool.tokensStaked -= amount;\n\n        // Withdraw tokens\n        emit Withdraw(msg.sender, _poolId, amount);\n        pool.stakeToken.safeTransfer(\n            address(msg.sender),\n            amount\n        );\n    }\n\n    /**\n     * @dev Harvest user rewards from a given pool id\n     */\n    function harvestRewards(uint256 _poolId) public {\n        updatePoolRewards(_poolId);\n        Pool storage pool = pools[_poolId];\n        PoolStaker storage staker = poolStakers[_poolId][msg.sender];\n        uint256 rewardsToHarvest = (staker.amount * pool.accumulatedRewardsPerShare / REWARDS_PRECISION) - staker.rewardDebt;\n        if (rewardsToHarvest == 0) {\n            staker.rewardDebt = staker.amount * pool.accumulatedRewardsPerShare / REWARDS_PRECISION;\n            return;\n        }\n        staker.rewards = 0;\n        staker.rewardDebt = staker.amount * pool.accumulatedRewardsPerShare / REWARDS_PRECISION;\n        emit HarvestRewards(msg.sender, _poolId, rewardsToHarvest);\n        rewardToken.mint(msg.sender, rewardsToHarvest);\n    }\n\n    /**\n     * @dev Update pool's accumulatedRewardsPerShare and lastRewardedBlock\n     */\n    function updatePoolRewards(uint256 _poolId) private {\n        Pool storage pool = pools[_poolId];\n        if (pool.tokensStaked == 0) {\n            pool.lastRewardedBlock = block.number;\n            return;\n        }\n        uint256 blocksSinceLastReward = block.number - pool.lastRewardedBlock;\n        uint256 rewards = blocksSinceLastReward * rewardTokensPerBlock;\n        pool.accumulatedRewardsPerShare += (rewards * REWARDS_PRECISION / pool.tokensStaked);\n        pool.lastRewardedBlock = block.number;\n    }\n    \n    /**\n     * @dev Get user total rewards\n     */\n    function getTotalRewards(uint256 _poolId) public view returns(uint256) {\n        Pool storage pool = pools[_poolId];\n\n        if (pool.tokensStaked != 0) {\n\n            PoolStaker storage staker = poolStakers[_poolId][msg.sender];\n\n            uint256 blocksSinceLastReward = block.number - pool.lastRewardedBlock;\n            uint256 rewards = blocksSinceLastReward * rewardTokensPerBlock;\n            uint256 accumulatedRewardsPerShare = pool.accumulatedRewardsPerShare + (rewards * REWARDS_PRECISION / pool.tokensStaked);\n            uint256 rewardsToHarvest = (staker.amount * accumulatedRewardsPerShare / REWARDS_PRECISION) - staker.rewardDebt;\n\n            return rewardsToHarvest;\n        }\n\n        return 0;\n    }\n\n    /**\n     * @dev Get user staked\n     */\n    function getStaked(uint256 _poolId,address user) public view returns(uint256) {\n        return poolStakers[_poolId][user].amount;\n    }\n\n    /**\n     * @dev Get pool total staked\n     */\n    function getTotalStaked(uint256 _poolId) public view returns(uint256) {\n        Pool storage pool = pools[_poolId];\n        return pool.tokensStaked;\n    }\n\n    /**\n     * @dev Get current pool reward per share\n     */\n    function getRewardPerShare(uint256 _poolId) public view returns(uint256) {\n        Pool storage pool = pools[_poolId];\n        return pool.accumulatedRewardsPerShare;\n    }\n    \n}",
  "sourcePath": "/home/kang/Elwin/Dapp-demo-kang/frontend/src/contracts/StakingManager.sol",
  "compiler": {
    "name": "solc",
    "version": "0.8.4+commit.c7e474f2.Emscripten.clang"
  },
  "schemaVersion": "3.4.11",
  "updatedAt": "2022-12-02T21:39:58.813Z",
  "networkType": "ethereum",
  "devdoc": {
    "kind": "dev",
    "methods": {
      "createPool(address)": {
        "details": "Create a new staking pool"
      },
      "deposit(uint256,uint256)": {
        "details": "Deposit tokens to an existing pool"
      },
      "getRewardPerShare(uint256)": {
        "details": "Get current pool reward per share"
      },
      "getStaked(uint256,address)": {
        "details": "Get user staked"
      },
      "getTotalRewards(uint256)": {
        "details": "Get user total rewards"
      },
      "getTotalStaked(uint256)": {
        "details": "Get pool total staked"
      },
      "harvestRewards(uint256)": {
        "details": "Harvest user rewards from a given pool id"
      },
      "owner()": {
        "details": "Returns the address of the current owner."
      },
      "renounceOwnership()": {
        "details": "Leaves the contract without owner. It will not be possible to call `onlyOwner` functions anymore. Can only be called by the current owner. NOTE: Renouncing ownership will leave the contract without an owner, thereby removing any functionality that is only available to the owner."
      },
      "transferOwnership(address)": {
        "details": "Transfers ownership of the contract to a new account (`newOwner`). Can only be called by the current owner."
      },
      "withdraw(uint256)": {
        "details": "Withdraw all tokens from an existing pool"
      }
    },
    "version": 1
  },
  "userdoc": {
    "kind": "user",
    "methods": {},
    "version": 1
  }
}